:020000040800F2
:10000000F80600202D200008810200088302000865
:10001000870200088B0200088F0200080000000021
:100020000000000000000000000000009302000833
:1000300095020008000000009702000899020008DD
:1000400047200008472000084720000847200008F4
:1000500047200008472000084720000847200008E4
:1000600047200008472000084720000847200008D4
:1000700047200008472000084720000847200008C4
:1000800047200008472000084720000847200008B4
:1000900047200008472000084720000847200008A4
:1000A0004720000847200008472000084720000894
:1000B000830B00088F0B00089B0B000847200008EB
:1000C0004720000847200008472000084720000874
:1000D00047200008A1130008BB140008C31500083E
:1000E0004720000847200008472000084720000854
:1000F0004720000847200008472000084720000844
:100100004720000847200008472000084720000833
:100110004720000847200008472000084720000823
:100120004720000847200008472000084720000813
:10013000DFF80CD003F0E0FE00480047450100085E
:10014000F806002001F070F84FF4165001F0EAF8BC
:100150004FF4E13001F061F94FF4E13001F0EDF9D5
:100160002D482E4908602EA003F0D8FE01F053FF61
:1001700000F03CFE00F064FE0BE04FF47A7001F0FA
:1001800090F82B48006808B9012000E000202849B9
:10019000086000F0D8FE0028EFD12548006808B9B3
:1001A000012000E000202249086000F0FCFC1A4811
:1001B0001A4908601FA003F0B1FE224817490860E1
:1001C00021A003F0ABFE24481449086023A003F0EB
:1001D000A5FE4FF47A7001F064F82448D0F8B0011D
:1001E00008B9012000E000201149086000F03EFA43
:1001F00040F6B83001F055F80748084908601CA0DF
:1002000003F08CFE01F007FF40F6B83001F049F82A
:1002100001E000F033FAFCE7003801406000002004
:10022000646174612E766131332E76616C3D3000ED
:10023000B001214255534152543120496E69742016
:100240004F4B210000440040555341525432204945
:100250006E6974204F4B21000048004055534152B5
:10026000543320496E6974204F4B21000000214215
:10027000646174612E766131332E76616C3D31009C
:10028000704700BFFEE700BFFEE700BFFEE700BF0C
:10029000FEE7704770477047704700000CB50020BC
:1002A000019000906C48006840F480306A49086012
:1002B00000BF6948006800F4003000900198401CBD
:1002C0000190009818B90198B0F5A06FF1D162487B
:1002D000006800F4003010B10120009001E000201F
:1002E00000900098012843D15C48006840F010005D
:1002F0005A4908600846006820F003000860084674
:10030000006840F002000860534840685249486065
:100310000846406848600846406840F4806048608D
:100320000846406820F47C1048600846406840F465
:10033000E81048600846006840F08070086000BF20
:100340004548006800F000700028F9D04248406835
:1003500020F00300404948600846406840F0020031
:10036000486000BF3C48406800F00C000828F9D104
:100370000CBD10B5FFF792FF10BD10B536480068F0
:1003800040F001003449086008464068344908409C
:100390003149486008460068324908402E490860E3
:1003A0000846006820F4802008600846406820F471
:1003B000FE0048604FF41F008860FFF7DAFF4FF03F
:1003C00000602949086010BD10B5002100200022FE
:1003D000214B5B6803F00C0121B1042906D00829E8
:1003E00028D107E0214B224C236027E01F4B204CF3
:1003F000236023E0184B5B6803F47010164B5B68B6
:1004000003F48032022303EB904022B9194B43439B
:10041000174C23600DE0104B5B6803F4003323B1ED
:10042000144B4343124C236003E0104B4343104CE6
:10043000236003E00D4B0E4C236000BF00BF064B52
:100440005B68C3F303130C4CE15C094B1B68CB40A6
:10045000074C236010BD0000001002400020024045
:100460000000FFF8FFFFF6FE08ED00E000127A0042
:100470000000002000093D000400002000B587B006
:100480000121084602F07BF90121042002F06AF9FB
:100490000320ADF8000004208DF8030003208DF840
:1004A00002006946F94801F0A1FE04A802F0C2FF6B
:1004B0000020ADF8100040F65F10ADF814000020E9
:1004C000ADF81600ADF8120004A94FF0804002F01C
:1004D00085FC00231A4603214FF0804003F08DF87D
:1004E00001A802F0BAFF0620ADF80C0001A94FF0F8
:1004F000804002F006FF0121880703F091FA0122F3
:100500001146900702F0E1FF00214FF0804003F018
:1005100055FA0121880702F0BDFF07B000BD00B504
:1005200087B00121022002F02AF90121042002F003
:1005300019F906A801F0E5FEC020ADF81800042066
:100540008DF81B0003208DF81A0006A9CF4801F092
:100550004DFECF4802F06EFB03A802F06BFF40F6A1
:100560005F10ADF810000020ADF80C00ADF81200DF
:10057000ADF80E0003A9C64802F030FC00231A466D
:100580000321C34803F039F8684602F066FF0620ED
:10059000ADF808006946BE4802F0B3FE0121BC4830
:1005A00003F03EFA01221146B94802F08EFF002006
:1005B000B749243108800121B54802F06BFF07B02C
:1005C00000BD00B587B00121042002F0D8F8012158
:1005D000082002F0C7F806A801F093FEC020ADF88D
:1005E000180004208DF81B0003208DF81A0006A9BE
:1005F000A84801F0FBFD022000F0DDFBA64802F058
:1006000019FB03A802F016FF40F65F10ADF81000CA
:100610000020ADF80C00ADF81200ADF80E0003A9F3
:100620009D4802F0DBFB00231A4603219A4802F0A2
:10063000E4FF684602F011FF0620ADF808006946A5
:10064000954802F05EFE0121934803F0E9F901228A
:100650001146914802F039FF00208F49243108806B
:1006600001218D4802F016FF07B000BD10B5FFF75D
:1006700005FFFFF754FFFFF7A4FF10BD2DE9F04F72
:100680008BB0042000F00DFE4FF4FA7000F0E5FD91
:1006900082480088401C81490880084600889628C6
:1006A0007DDA4FF0804003F0ACF905467C490988BB
:1006B000681A03F0E5FA21F00041CDE9080103F0E2
:1006C00004FB0446B4F57A7F0FDC75480088854248
:1006D00005DD744800682044724908601EE07148D6
:1006E0000068001B6F49086018E06D48008885426B
:1006F0000ADD6B4800882844C0F51660694909681E
:1007000008446849086009E0654800882844C0F545
:10071000166064490968081A6249086060480580E3
:10072000782094FBF0F100FB1140019003F0A8FA4F
:100730005D4A5E4BCDE9020103F030FACDE90601D6
:10074000782094FBF0F0039003F09AFACDE90401CD
:10075000DDE9062303F07BF9CDE9080103F0D4FAC3
:10076000534908604A4803F04CF906465149098844
:10077000701A03F085FA21F00041CDE9080103F079
:10078000A4FA0446B4F57A7F10DC4A480088864211
:1007900006DD494800682044474908601FE0C1E081
:1007A00045480068001B4449086018E0414800883B
:1007B00086420ADD3F4800883044C0F516603E4955
:1007C000096808443C49086009E03A480088304418
:1007D000C0F5166038490968081A37490860354875
:1007E0000680782094FBF0F100FB1140019003F0AB
:1007F00047FA2D4A2D4BCDE9020103F0CFF9CDE99F
:100800000601782094FBF0F0039003F039FACDE96B
:100810000401DDE9062303F01AF9CDE9080103F02C
:1008200073FA264908601C4803F0EBF80746244990
:100830000988781A03F024FA21F00041CDE9080173
:1008400003F043FA0446B4F57A7F0FDC1C480088B5
:10085000874205DD1848006820441A4908603DE0D9
:1008600018480068001B1749086037E014480088E2
:10087000874229DD124800883844C0F516601149C6
:10088000096808440F49086028E00000000801409A
:1008900000040040000C014000080040500000200F
:1008A00052000020300000209A9999999999B93FF7
:1008B0001400002054000020340000201800002004
:1008C0005600002038000020C64800883844C0F593
:1008D0001660C5490968081AC3490860C1480780FD
:1008E000782094FBF0F100FB1140019003F0C8F96F
:1008F000BE4ABF4BCDE9020103F050F9CDE9060134
:10090000782094FBF0F0039003F0BAF9CDE90401EC
:10091000DDE9062303F09BF8CDE9080103F0F4F9C3
:10092000B4490860B448008896287DDBB348006865
:10093000C043B349C1F8B0010020AF490880B148B5
:10094000B1490860B14909684FF4B47201FB02F083
:10095000C11700EB5151AE4A126802EBE12949463A
:10096000ACA003F0DBFAAC48006803F09AF98046CB
:10097000C8EB081080004FF47A71B0FBF1F8A7487B
:10098000C0F8008000680A21B0FBF1F0A4490860BB
:10099000A24802680A20B2FBF0F100FB11200246D7
:1009A00009909F4801689FA003F0B8FA9F49096821
:1009B0004FF4B47201FB02F0C11700EB51519C4A95
:1009C000126802EBE12A514692A003F0A7FA994877
:1009D000006803F066F98046C8EB081080004FF409
:1009E0007A71B0FBF1F88D48C0F8008000680A21E8
:1009F000B0FBF1F090490860884800680A21B0FB1C
:100A0000F1F201FB1200024609908B48016885A0B3
:100A100003F084FA744909684FF4B47201FB02F0E0
:100A2000C11700EB515100E0A8E0844A126802EBC4
:100A3000E12B594677A003F071FA6E48006803F085
:100A400030F98046C8EB081080004FF47A71B0FB93
:100A5000F1F87248C0F8008000680A21B0FBF1F09C
:100A6000774908606D4800680A21B0FBF1F201FB8C
:100A7000120002460990724801686AA003F04EFA1B
:100A8000704840886F4909886F4AD288CDE90021B3
:100A900002906D488388428801886CA003F03EFA7A
:100AA0006F485949086049466EA003F037FA01F0D3
:100AB000B2FA51466FA003F031FA01F0ACFA594690
:100AC00070A003F02BFA01F0A6FA5548016871A056
:100AD00003F024FA01F09FFA5748016871A003F06F
:100AE0001DFA01F098FA5648016872A003F016FA50
:100AF00001F091FA73A003F011FA01F08CFA75A0DD
:100B000003F00CFA01F087FA76A003F007FA01F07F
:100B100082FA78A003F002FA01F07DFA794981F8AF
:100B2000009081F801A081F802B047480078C870B1
:100B30004548807808714448007948714248807976
:100B400088710822002000F026FA6F482E490860BC
:100B50006E48006848B96EA003F0E0F9322000F05A
:100B6000A0FB01206949086008E06BA003F0D6F9FA
:100B7000322000F096FB0020644908600BB0BDE80D
:100B8000F08F10B50121880702F05EFF10BD10B58F
:100B90000121634802F058FF10BD10B501216148E2
:100BA00002F052FF10BD1CB508226946002000F07B
:100BB000E1F99DF80000164908609DF801001C4904
:100BC00008609DF802001D49086025480E4908602C
:100BD0001A480368164802680D48016852A003F0DD
:100BE0009DF91CBD56000020380000209A99999963
:100BF0009999B93F1C00002050000020B00121420B
:100C0000000021420044004060000020300000202D
:100C10003C00002025643B00140000202000002040
:100C20002400002025642E25643B000034000020B1
:100C30004000002018000020280000204400002070
:100C40002C000020640000208C00002025643B253F
:100C5000643B25643B25643B25643B25642C0000F4
:100C600000380140646174612E7661332E76616CC8
:100C70003D256400646174612E7661342E76616C6A
:100C80003D256400646174612E7661352E76616C59
:100C90003D256400646174612E7661362E76616C48
:100CA0003D256400646174612E7661372E76616C37
:100CB0003D256400646174612E7661382E76616C26
:100CC0003D256400646174612E766131302E766159
:100CD0006C3D3100646174612E766131312E766134
:100CE0006C3D3100646174612E766131322E766123
:100CF0006C3D3100646174612E766131332E766112
:100D00006C3D3200480000200048004058000020A0
:100D10004739320D0A0000004D3130350D0A000010
:100D20000004004000080040783D256420793D25FE
:100D300064207A3D2564000001B519208DF800007B
:100D400000208DF801008DF8020001208DF80300CD
:100D5000684601F082F908BD01B51E208DF800003B
:100D600001208DF801008DF802008DF8030068461F
:100D700001F073F908BD01B526208DF800000220AE
:100D80008DF8010001208DF802008DF803006846FF
:100D900001F063F908BD01B527208DF8000003209C
:100DA0008DF8010001208DF802008DF803006846DF
:100DB00001F053F908BD38B504464FF4A06001F0C6
:100DC00047F9012C02D10098FFF7B6FF022C02D19F
:100DD0000098FFF7C1FF032C02D10098FFF7CBFF6B
:100DE000042C02D10098FFF7D6FF38BD08B50121C9
:100DF000042001F0B7FC4FF48050ADF80000102043
:100E00008DF8030003208DF802006946094801F0BF
:100E1000EDF94FF48051074801F095FA002006499A
:100E200008604FF47A7000F03CFA01200349C1F8E1
:100E3000B00108BD00080140B0012142000021427C
:100E400010B500F0BBF810BD70B50446002600F0E8
:100E5000CCF82546E11704EB11610912A02202EB40
:100E60004101C8B200F073F900F000F9E11704EB9A
:100E700011610912A4EB0121C8B200F068F900F079
:100E8000F5F800F0B2F8A12000F061F900F0EEF8FA
:100E9000002000F090F9064600F0C7F8304670BD1B
:100EA00070B504460E4600F0A0F82546E11704EBA5
:100EB00011610912A02202EB4101C8B200F047F90A
:100EC00000F0D4F8E11704EB11610912A4EB012141
:100ED000C8B200F03CF900F0C9F8304600F037F92C
:100EE00000F0C4F800F0A1F80A2000F0DAF970BDB3
:100EF0002DE9F04105460E461746002409E0E200C0
:100F000026FA02F2D1B22A1990B2FFF7C9FF601C8B
:100F1000C4B2BC42F3DBBDE8F0812DE9F0410746E5
:100F20000C460026002509E036023919491B491EE6
:100F300088B2FFF789FF0644681CC5B2A542F3DBFF
:100F40003046BDE8F08110B5FF20FFF77DFF044675
:100F5000552C01D1002010BD5521FF20FFF7A0FF27
:100F6000FF20FFF771FF0446552C01D10020F2E766
:100F70000120F0E770B506460C46154608E03046FD
:100F8000721C96B2FFF760FF04F8010B681E85B271
:100F9000002DF4D170BD70B505460C46164606E02E
:100FA00021782846FFF77CFF681C85B2641C301E40
:100FB000A6F101018EB2F3D170BD000008B5012188
:100FC000082001F0CFFB0320ADF8000010208DF8C1
:100FD000030003208DF802006946904801F006F9ED
:100FE00003218E4801F0AFF908BD10B58B480068A9
:100FF00020F00F00894908600846006840F00300AF
:1010000008600120864908608649C1F884010420EF
:1010100000F023F9002082490860042000F01DF947
:1010200000208049C1F8840110BD10B57B480068DC
:1010300020F00F00794908600846006840F003007E
:10104000086000207649091D08607649C1F88001D2
:10105000042000F002F901207149091D086071495E
:10106000C1F88001042000F0F8F810BD10B500248C
:101070006A48006820F00F00684908600846006868
:1010800040F00800086001206549086000F0E5F8BC
:1010900001206449C1F8840100F0DFF807E0601C1A
:1010A000C4B2FA2C03DDFFF7C0FF012010BD5C487D
:1010B000803800680028F2D15949091D086000BF36
:1010C000F4E710B500205649091D08605348006830
:1010D00020F00F00514908600846006840F0030006
:1010E000086000204F49C1F88001022000F0B5F8E7
:1010F00001204B49091D0860022000F0AEF80020D5
:101100004849C1F8840110BD10B500204449091DAB
:1011100008604248006820F00F0040490860084617
:10112000006840F00300086001203E49C1F88001DA
:10113000022000F092F801203949091D08600220C0
:1011400000F08BF800203749C1F8840110BD70B55C
:1011500004463248006820F00F0030490860084615
:10116000006840F00300086000202D49091D086058
:1011700000251DE0E00918B101202949086002E0BE
:101180000020274908606006040E022000F065F880
:1011900001202349091D0860022000F05EF80020AC
:1011A0002049C1F88401022000F057F8681CC5B23C
:1011B000082DDFDB70BD70B50546002417480068B8
:1011C00020F00F00154908600846006840F008004C
:1011D0000860002617E000201149091D0860022060
:1011E00000F03BF801200F49C1F884016006040EAD
:1011F0000B488038006808B1601CC4B2012000F0C0
:101200002CF8701CC6B2082EE5DB15B9FFF77CFF81
:1012100001E0FFF756FF204670BD0000000C0140C2
:10122000808121420080214210B56FF0040000F05F
:101230005EFF2E4800682E49B0FBF1F02D49087082
:101240000846007800EB4001C1EBC0104FF6FF717B
:1012500001EAC0002849088010BD0146254A1278DD
:101260004A434FF0E0235A6100229A611A461269FC
:1012700042F001021A6100BF4FF0E022106900F055
:1012800001021AB100F48032002AF5D04FF0E022BA
:10129000126922F001024FF0E0231A6100229A61E4
:1012A00070470146144A12884A434FF0E0235A61BE
:1012B00000229A611A46126942F001021A6100BFC7
:1012C0004FF0E022106900F001021AB100F4803200
:1012D000002AF5D04FF0E022126922F001024FF00F
:1012E000E0231A6100229A6170470000000000208C
:1012F00000127A005C0000205E00002000BF7047F2
:1013000070B504460D46E1B2FC48006801F0CAFB26
:1013100000BF8021F948006801F032FC0028F8D0B5
:10132000204670BD10B586B00446012144F2040089
:1013300001F018FA4FF40070ADF8140003208DF896
:10134000160018208DF8170005A9ED4800F04EFF93
:101350004FF48060ADF8140004208DF8170005A943
:10136000E74800F043FF01940020ADF80800ADF815
:101370000A00ADF80C00ADF810000C20ADF80E001E
:1013800001A9E04801F095FA012240F22551DD481B
:1013900001F027FB0121DB4801F017FB06B010BD6F
:1013A00010B540F22551D74801F000FC10B3D548E4
:1013B00001F07CFBC4B2D448008800F40040C8B9F6
:1013C000D148008800F4804060B10A2C03D000208E
:1013D000CD49088020E0CC48008840F40040CA494C
:1013E000088019E00D2C06D1C748008840F48040E1
:1013F000C549088010E0C4480088C0F30D00C34907
:101400000C54C1480088401CBF4908800846008829
:10141000C72801DD0020088010BD10B586B0044645
:101420000121052001F09EF90121B94801F0A7F939
:101430000820ADF8140048208DF8170005A9B04821
:1014400000F0D4FE0420ADF8140003208DF816003F
:1014500018208DF8170005A9A94800F0C7FE032041
:10146000FFF7A9FC01940020ADF80800ADF80A00D0
:10147000ADF80C00ADF810000C20ADF80E0001A97D
:10148000A44801F016FA012240F22551A14801F0CA
:10149000A8FA01219F4801F098FA06B010BD10B5D6
:1014A000044621469C4801F0FDFA00BF80219A487D
:1014B00001F066FB0028F9D010BD10B540F22551AF
:1014C000944801F073FB28B3924801F0EFFAC4B2DC
:1014D0002046FFF7E4FF9148008800F40040C8B9B7
:1014E0008E48008800F4804060B10A2C03D00020B0
:1014F0008A49088020E08948008840F400408749F4
:10150000088019E00D2C06D18448008840F4804002
:101510008249088010E081480088C0F30D008049AE
:101520000C547E480088401C7C490880084600888E
:10153000C72801DD0020088010BD10B586B0044624
:101540000121082001F00EF90121880401F017F9AA
:101550004FF40060ADF8140048208DF8170005A97D
:10156000704800F043FE4FF48060ADF81400032093
:101570008DF8160018208DF8170005A9694800F0AD
:1015800035FE0420FFF717FC01940020ADF8080099
:10159000ADF80A00ADF80C00ADF810000C20ADF865
:1015A0000E0001A95C4801F084F9012240F22551A6
:1015B000594801F016FA0121574801F006FA06B021
:1015C00010BD2DE9FC474FF0000940F2255152486B
:1015D00001F0ECFA00284ED04F4801F067FAC7B28C
:1015E0005148007860B96F2F05D140204F490870ED
:1015F0003A20487004E06F204C4908706B20487016
:101600000120494908704A48008800F4004000BBA6
:101610004748008800F4804088B144484078B84288
:1016200006D043480088C0F30D004149088022E0FD
:101630003F48008840F400403D4908801BE03B489B
:101640000078B84206D13A48008840F480403849D2
:10165000088010E036480088C0F30D0035490F546B
:1016600033480088401C3249088008460088C72853
:1016700001DD002008802E48008800F4004000288A
:101680003BD02D48006808B9012000E000202A491D
:101690000860002025490870487025480088C0F37C
:1016A0000D081D4815490860414624A002F036FC8B
:1016B000002495E31F48005D542876D008DC4028BC
:1016C00074D0422873D0432809D0452870D168E2ED
:1016D000582807D059286CD05A28F7D1A2E14FF0EA
:1016E00001097AE31349601C085C3A285CD1B9F11E
:1016F000000F7DD10025002637E0A9E3600000201F
:1017000000080140003801406C0000209C000020CF
:101710000100020000440040004800406E0000202C
:1017200064010020000C01407400002072000020C1
:10173000700000202C020020B001214225640D0A17
:10174000000000006019FE49085C30280BDB6019BE
:10175000085C392807DC6019085C3038C0B20DF825
:101760000600701CC6B2681CC5B26019F449085C5A
:101770002028E7D1042E1DD19DF800004FF47A7186
:1017800048439DF8011001EBC10202EB011100EB8F
:1017900081009DF8021001EB810100EB41009DF8F2
:1017A00003100844E749088081E058E213E3B4E2FB
:1017B00012E37DE0052E7AD19DF8000042F210710F
:1017C00048439DF8011001EB4102C2EBC11100EB4F
:1017D000C1019DF8020000EBC00202EB001001EB1A
:1017E00080009DF8031001EB810100EB410000E057
:1017F00005E09DF804100844D249088057E0002510
:10180000002612E06019CE49085C30280BDB601915
:10181000085C392807DC6019085C3038C0B20DF864
:101820000600701CC6B2681CC5B26019C449085CC9
:101830002028E7D1042E18D19DF800004FF47A71CA
:1018400048439DF8011001EBC10202EB011100EBCE
:1018500081009DF8021001EB810100EB41009DF831
:1018600003100844B749488121E0052E1FD19DF897
:10187000000042F2107148439DF8011001EB410253
:10188000C2EBC11100EBC1019DF8020000EBC002E8
:1018900002EB001001EB80009DF8031001EB8101C9
:1018A00000EB41009DF804100844A649488194E2E9
:1018B000A349601C085C3A2837D1B9F1000F58D110
:1018C0000025002612E060199D49085C30280BDBDA
:1018D0006019085C392807DC6019085C3038C0B230
:1018E0000DF80600701CC6B2681CC5B26019944998
:1018F000085C2028E7D1042E18D19DF800004FF491
:101900007A7148439DF8011001EBC10202EB01110D
:1019100000EB81009DF8021001EB810100EB41001A
:101920009DF803100844874948807AE0052E78D155
:101930009DF8000042F2107148439DF8011001EB40
:101940004102C2EBC11100EBC1019DF8020000EBA6
:10195000C00202EB001001EB80009DF8031001EBC8
:10196000810100EB41009DF804100844754948804E
:1019700057E00025002612E060197149085C302804
:101980000BDB6019085C392807DC6019085C30380B
:10199000C0B20DF80600701CC6B2681CC5B2601952
:1019A0006749085C2028E7D1042E18D19DF8000073
:1019B0004FF47A7148439DF8011001EBC10202EB2C
:1019C000011100EB81009DF8021001EB810100EB99
:1019D00041009DF8031008445A49888121E0052EF2
:1019E0001FD19DF8000042F2107148439DF801108C
:1019F00001EB4102C2EBC11100EBC1009DF80210E6
:101A000001EBC10202EB011100EB81009DF8031014
:101A100001EB810100EB41009DF8041008444949A5
:101A20008881DAE14649601C085C3A2837D1B9F16F
:101A3000000F58D10025002612E060194049085CCB
:101A400030280BDB6019085C392807DC6019085C5A
:101A50003038C0B20DF80600701CC6B2681CC5B2A2
:101A600060193749085C2028E7D1042E18D19DF869
:101A700000004FF47A7148439DF8011001EBC10258
:101A800002EB011100EB81009DF8021001EB8101D6
:101A900000EB41009DF8031008442A4988807FE04C
:101AA000052E7DD19DF8000042F2107148439DF84B
:101AB000011001EB4102C2EBC11100EBC1019DF825
:101AC000020000EBC00202EB001001EB80009DF869
:101AD000031001EB810100EB41009DF80410084464
:101AE000184988805CE00025002612E0601914493E
:101AF000085C30280BDB6019085C392807DC6019AA
:101B0000085C3038C0B20DF80600701CC6B2681C04
:101B1000C5B260190A49085C0D28E7D1042E1DD111
:101B20009DF800004FF47A7148439DF8011001EBD5
:101B3000C10202EB011100EB81009DF8021003E0ED
:101B40002C0200208C00002001EB810100EB410001
:101B50009DF803100844F749C88121E0052E1FD1E4
:101B60009DF8000042F2107148439DF8011001EB0E
:101B70004102C2EBC11100EBC1019DF8020000EB74
:101B8000C00202EB001001EB80009DF8031001EB96
:101B9000810100EB41009DF804100844E549C8812B
:101BA0001BE1E549601C085C3A2857D10025002656
:101BB00012E06019E049085C30280BDB6019085C12
:101BC000392807DC6019085C3038C0B20DF806000F
:101BD000701CC6B2681CC5B26019D749085C2028C1
:101BE000E7D1042E18D19DF800004FF47A714843D4
:101BF0009DF8011001EBC10202EB011100EB810025
:101C00009DF8021001EB810100EB41009DF80310EB
:101C10000844C849C88021E0052E1FD19DF8000066
:101C200042F2107148439DF8011001EB4102C2EBF2
:101C3000C11100EBC1009DF8021001EBC10202EBE3
:101C4000011100EB81009DF8031001EB810100EB15
:101C500041009DF804100844B649C880BDE0B6496B
:101C6000601C085C3A2857D10025002612E0601954
:101C7000B149085C30280BDB6019085C392807DCA7
:101C80006019085C3038C0B20DF80600701CC6B28E
:101C9000681CC5B26019A849085C2028E7D1042E49
:101CA00018D19DF800004FF47A7148439DF8011057
:101CB00001EBC10202EB011100EB81009DF8021063
:101CC00001EB810100EB41009DF8031008449B49A2
:101CD000088021E0052E1FD19DF8000042F210710E
:101CE00048439DF8011001EB4102C2EBC11100EB2A
:101CF000C1009DF8021001EBC10202EB011100EBE3
:101D000081009DF8031001EB810100EB41009DF87B
:101D100004100844894908805FE08749601C085C1A
:101D20003A2857D10025002612E060198249085C44
:101D300030280BDB6019085C392807DC6019085C67
:101D40003038C0B20DF80600701CC6B2681CC5B2AF
:101D500060197949085C2028E7D1042E18D19DF834
:101D600000004FF47A7148439DF8011001EBC10265
:101D700002EB011100EB81009DF8021001EB8101E3
:101D800000EB41009DF8031008446C49488021E0B5
:101D9000052E1FD19DF8000042F2107148439DF8B6
:101DA000011001EB4102C2EBC11100EBC1009DF833
:101DB000021001EBC10202EB011100EB81009DF862
:101DC000031001EB810100EB41009DF80410084471
:101DD0005A49488001E000E000BF00BF601C84B2A7
:101DE0004445FFF667AC564856490860514801889B
:101DF00055A002F093F84F48418857A002F08EF8A2
:101E00004C48818858A002F089F84A48C1885AA0F5
:101E100002F084F8474841895BA002F07FF845480A
:101E200081895DA002F07AF84248C1895EA002F083
:101E300075F84248018860A002F070F83F48418878
:101E400062A002F06BF800206549088065490870BF
:101E5000BDE8FC8770B504460D462946204600F0D3
:101E600021FE00BF8021204600F08AFE0028F9D024
:101E700070BD70B506460C46002500BF615D30465A
:101E8000FFF7E8FF6D1C605D0028F7D100BF40211F
:101E9000304600F075FE0028F9D070BD2DE9F04104
:101EA00005460C46260AE7B23146284600F0FAFD00
:101EB00000BF8021284600F063FE0028F9D0394693
:101EC000284600F0EFFD00BF8021284600F058FEB4
:101ED0000028F9D0BDE8F08110B5044621464248FB
:101EE00000F0E0FD00BF80213F4800F049FE0028DF
:101EF000F9D010BD70B505460E46002403E0285DFC
:101F0000FFF7EAFF641CB442F9D370BD10B5044674
:101F10002146364800F0C6FD00BF8021334800F05E
:101F20002FFE0028F9D010BD70B505460E460024DE
:101F300062E000008C0000202C02002064000020E1
:101F40000048004060000020506F736974696F6E34
:101F50005B305DA3BA256400506F736974696F6E5E
:101F60005B315DA3BA256400506F736974696F6E4D
:101F70005B325DA3BA256400506F736974696F6E3C
:101F80005B335DA3BA256400506F736974696F6E2B
:101F90005B355DA3BA256400506F736974696F6E19
:101FA0005B365DA3BA256400506F736974696F6E08
:101FB0005B375DA3BA25640054656D70657261740A
:101FC0007572655B305DA3BA2564000054656D7061
:101FD000657261747572655B315DA3BA256400003A
:101FE00070000020740000200038014000440040D0
:101FF000285DFFF78BFF641CB442F9D370BD70B548
:1020000005460E46002403E0285DFFF748FA641CED
:10201000B442F9D370BD10B5FF20FFF75DFFFF207C
:10202000FFF75AFFFF20FFF757FF10BD0648804714
:1020300006480047FEE7FEE7FEE7FEE7FEE7FEE7AD
:10204000FEE7FEE7FEE7FEE77B030008310100083C
:1020500031490143314A1160704770B500210023B6
:102060000F22C47804B32D4C246804F4E064C4F552
:10207000E064210AC1F10403CA40447804FA03F180
:102080008478144021430901254C0678A155047831
:1020900004F01F050124AC4005786D11AD0005F179
:1020A000E025C5F8004109E0047804F01F0501248B
:1020B000AC401C4D0678761145F8264070BD1A4A92
:1020C0000A400243154B1B1F1A60704739B1134A6F
:1020D000121D12680243114B1B1D1A6006E00F4AC5
:1020E000121D126882430D4B1B1D1A607047042895
:1020F00008D14FF0E021096941F004014FF0E022DE
:10210000116107E04FF0E021096921F004014FF06F
:10211000E0221161704700000000FA050CED00E0BC
:1021200000E400E080E100E080FFFF1F10B50446FE
:10213000CC48844208D10121042000F02DFB00216D
:10214000042000F029FB46E0C748844208D1012161
:10215000082000F021FB0021082000F01DFB3AE0E0
:10216000C248844208D10121102000F015FB002153
:10217000102000F011FB2EE0BD48844208D101215F
:10218000202000F009FB0021202000F005FB22E0C8
:10219000B848844208D10121402000F0FDFA002116
:1021A000402000F0F9FA16E0B348844208D101213A
:1021B000802000F0F1FA0021802000F0EDFA0AE022
:1021C000AE48844207D10121801500F0E5FA0021D4
:1021D000A01500F0E1FA10BD10B50121084600F08D
:1021E000DBFA0021012000F0D7FA10BD2DE9F04103
:1021F000024600250026002000230024002791F835
:1022000003C00CF00F0591F803C00CF0100CBCF1EA
:10221000000F03D091F802C04CEA050591F800C008
:10222000BCF1000F31D0146800202BE04FF0010CFE
:102230000CFA00F3B1F800C00CEA03069E4220D16C
:1022400083004FF00F0C0CFA03F7BC4305FA03FCB4
:102250004CEA040491F803C0BCF1280F06D14FF0FA
:10226000010C0CFA00FCC2F814C00AE091F803C09B
:10227000BCF1480F05D14FF0010C0CFA00FCC2F87C
:1022800010C0401C0828D1D31460B1F800C0BCF1C4
:10229000FF0F34DD546800202EE000F1080C4FF0F1
:1022A000010808FA0CF3B1F800C00CEA03069E42DC
:1022B00021D183004FF00F0C0CFA03F7BC4305FA51
:1022C00003FC4CEA040491F803C0BCF1280F05D1CB
:1022D00000F1080C08FA0CF8C2F8148091F803C059
:1022E000BCF1480F07D100F1080C4FF0010808FAC3
:1022F0000CF8C2F81080401C0828CED35460BDE80A
:10230000F0814FF6FF710180022181700421C170BC
:1023100070470246002093680B400BB1012000E09B
:10232000002070470146886880B27047024600204E
:10233000D3680B400BB1012000E00020704701463C
:10234000C86880B2704701617047416170470AB147
:10235000016100E041617047C16070474FF4803215
:102360000A438261816182618269826970470246A3
:102370000020434B18684FF68073184040EA021063
:1023800008433F4B186070473E49C8617047F0B53D
:102390000A46002300240021002500F00046B6F183
:1023A000004F02D1364EF16901E0354E7168C0F33D
:1023B000034583B200F44016B6F5401F08D121F062
:1023C00070612F4E766826F070662D4F7E6012E0A9
:1023D00000F48016B6F5801F06D1032606FA05F430
:1023E000A14341F0706106E0460D360103FA06F69E
:1023F000B14341F0706122B1460D360103FA06F691
:10240000314300F00046B6F1004F02D11C4EF1619D
:1024100001E01B4E7160F0BD30B500228B071C0F30
:102420000F2303FA04F2164B08338C1053F82430B0
:102430009343134C08348D1044F8253023468C10F8
:1024400053F824308C07240F00FA04F423430C4C77
:1024500008348D1044F8253030BD0A49DC3108605D
:102460007047000000080140000C014000100140CE
:102470000014014000180140001C014000200140F0
:102480000000014000002042DF48006840F00100E9
:10249000DD49086008464068DC490840DA49486080
:1024A00008460068DA490840D749086008460068CD
:1024B00020F4802008600846406820F4FE00486050
:1024C0004FF41F0088607047CF49096821F48031BC
:1024D000CD4A11601146096821F480211160B0F5E0
:1024E000803F03D0B0F5802F0ED106E0C6490968C1
:1024F00041F48031C44A116007E0C349096841F4DE
:10250000A021C14A116000E000BF00BF704710B5B4
:1025100001460022002300204A11012A02D1BA4CB0
:10252000236806E0022A02D1B74C236A01E0B64CC8
:10253000636A01F01F02012494401C400CB1012089
:1025400000E0002010BD38B50020009000240025D8
:1025500000BF3120FFF7DBFF05460098401C0090CC
:102560000098B0F5A06F01D0002DF2D03120FFF718
:10257000CEFF08B1012400E00024204638BD01460A
:102580000020A14A106820F0F80040EAC100106065
:102590007047A04908607047024600209A4B58686F
:1025A00020F47C1042EA01031843974B58607047AF
:1025B00098490866704701460020934A506820F009
:1025C00003000843506070478F48406800F00C00DB
:1025D0007047014600208C4A506820F0F000084304
:1025E0005060704701460020874A506820F4E06040
:1025F00008435060704701460020834A506820F429
:10260000605040EAC1005060704729B17E4A527A5A
:1026100002437D4B5A7204E07B4A527A82437A4BE2
:102620005A7270477B49D8310860704701460020D4
:10263000754A506820F440400843506070470021BC
:10264000714A20321170704A82F82010012802D09D
:1026500004280AD104E001216B4A2032117005E000
:102660000521694A2032117000E000BF00BF7047A9
:102670006949086070476449096A0143624A116206
:102680007047654944390860704730B50021002221
:10269000002400235C4D6D6805F00C0121B1042974
:1026A00005D0082923D105E05C4D056022E05B4D93
:1026B00005601FE0544D6D6805F47012524D6D6851
:1026C00005F48034022505EB92421CB9544D554364
:1026D00005600BE04C4D6D6805F400351DB1504DA3
:1026E0005543056002E04D4D5543056002E04B4DFA
:1026F000056000BF00BF444D6D6805F0F001090999
:10270000484D6B5C0568DD4045603F4D6D6805F4E4
:10271000E061090A434D6B5C4568DD4085603A4DD8
:102720006D6805F46051C90A3E4D6B5C4568DD403B
:10273000C560354D6D6805F44041890B3A4D6B5CC1
:10274000C568B5FBF3F5056130BD29B12E4A526964
:1027500002432D4B5A6104E02B4A526982432A4BB3
:102760005A61704729B1284A92690243264B9A61FF
:1027700004E0254A92698243234B9A61704729B14C
:10278000214AD2690243204BDA6104E01E4AD26931
:1027900082431D4BDA61704729B11B4AD26802435C
:1027A000194BDA6004E0184AD2688243164BDA60AB
:1027B000704729B1144A12690243134B1A6104E0AD
:1027C000114A12698243104B1A617047124940390D
:1027D000086070470F49C86470470B49C87170475B
:1027E0000948406A40F080700749486270470146D6
:1027F0000020054A92680A400AB1012000E000204A
:102800007047014988727047001002400000FFF8CD
:10281000FFFFF6FE000042428004424200127A00AE
:1028200000093D00750000208500002010B5044619
:10283000FB48844209D101218803FFF7ADFF002145
:102840004FF48040FFF7A8FF32E0F648844209D1F8
:1028500001214804FFF7ADFF00214FF40030FFF7DE
:10286000A8FF25E0F048844209D101218804FFF740
:10287000A0FF00214FF48020FFF79BFF18E0EB48FA
:10288000844209D10121C804FFF793FF00214FF4CE
:102890000020FFF78EFF0BE0E548844208D10121BC
:1028A0000805FFF786FF00214FF48010FFF781FF36
:1028B00010BD2DE9F04786B005460E460024A2461D
:1028C00000BFA1460027B08900B100BF2F462C8A67
:1028D0004CF6FF700440F08804432C82AC894EF61D
:1028E000F3100440B08831890843718908430443D8
:1028F000AC81AC8A4FF6FF400440B0890443AC82FF
:1029000001A8FFF7C2FEC648874202D1DDF810A039
:1029100001E0DDF80CA0A88900F4004040B10AEB0A
:10292000CA0000EB0A1031684900B0FBF1F807E07B
:102930000AEBCA0000EB0A1031688900B0FBF1F81D
:102940006420B8FBF0F004012009642101FB108928
:10295000A88900F4004040B1322000EBC900B0FB70
:10296000F1F000F00700044308E0322000EB09100A
:102970006421B0FBF1F000F00F0004432C8106B09D
:10298000BDE8F0874FF41651016000218180C180BD
:1029900001810C21418100218181704710B50246DF
:1029A0000020108A4FF2FF0318400B884C88234305
:1029B0008C882343CC8823431843108210BD002108
:1029C000018041808180C180704721B1828942F4B9
:1029D0000052828104E082894DF6FF731A408281A1
:1029E0007047F0B50346002400260025002040F67D
:1029F0006A17B94200D100BF1846C1F3421401F072
:102A00001F06012707FA06F5012C01D10C3004E05E
:102A1000022C01D1103000E014301AB107682F43A6
:102A2000076002E00768AF430760F0BD1AB1838A10
:102A30000B43838202E0838A8B4383827047028A3E
:102A40004FF6F0731A400282028A0A4302827047EC
:102A500082894FF2FF731A40828182890A43828100
:102A6000704721B1828942F00202828104E08289AA
:102A70004FF6FD731A4082817047028A4FF6DF736A
:102A80001A400282028A0A430282704721B1028AF6
:102A900042F48042028204E0028A4BF6FF731A403D
:102AA00002827047C1F3080282807047014688881D
:102AB000C0F308007047818941F0010181817047AE
:102AC000028BD2B20283028B42EA01220283704758
:102AD000028B02F47F420283028B0A430283704717
:102AE00021B1828A42F02002828204E0828A4FF67B
:102AF000DF731A408282704721B1828A42F010024D
:102B0000828204E0828A4FF6EF731A408282704715
:102B100021B1828A42F00802828204E0828A4FF662
:102B2000F7731A408282704721B1828942F40042D1
:102B3000828103E08289C2F30E028281704721B153
:102B4000828A42F40062828204E0828A4FF2FF733A
:102B50001A4082827047828A4FF6FB731A40828243
:102B6000828A0A438282704721B1828A42F002023D
:102B7000828204E0828A4FF6FD731A408282704797
:102B800002460020B1F5007F00D100BF13880B4042
:102B90000BB1012000E00020704701F40072B2F593
:102BA000007F00D100BFCA430280704770B5024663
:102BB000002400230025002040F66A16B14200D10F
:102BC00000BFC1F3421501F01F03012606FA03F30B
:102BD000012D02D19689334006E0022D02D1168ADA
:102BE000334001E0968A33400C12012606FA04F4C1
:102BF0001688344013B10CB1012000E0002070BDF4
:102C000010B50022002340F66A14A14200D100BF93
:102C10000A1201249440A3B2DC43048010BD0000DA
:102C2000003801400044004000480040004C004093
:102C30000050004010B50446FE48844208D10121EE
:102C4000C014FFF7A9FD0021E014FFF7A5FDC4E0C3
:102C5000B4F1804F08D101210846FFF7AAFD0021F9
:102C60000120FFF7A6FDB8E0F348844208D1012116
:102C70000220FFF79EFD00210220FFF79AFDACE045
:102C8000EE48844208D101210420FFF792FD002183
:102C90000420FFF78EFDA0E0E948844208D101211D
:102CA0000820FFF786FD00210820FFF782FD94E051
:102CB000E448844208D101211020FFF77AFD002169
:102CC0001020FFF776FD88E0DF48844208D101211B
:102CD0002020FFF76EFD00212020FFF76AFD7CE039
:102CE000DA48844208D101214014FFF755FD002144
:102CF0006014FFF751FD70E0D548844209D10121ED
:102D0000C804FFF749FD00214FF40020FFF744FD00
:102D100063E0D048844209D101210805FFF73CFD5A
:102D200000214FF48010FFF737FD56E0CA48844277
:102D300009D101214805FFF72FFD00214FF40010B4
:102D4000FFF72AFD49E0C548844208D1012140200F
:102D5000FFF72FFD00214020FFF72BFD3DE0C0488D
:102D6000844208D101218020FFF723FD002180202B
:102D7000FFF71FFD31E0BB48844208D101218015D7
:102D8000FFF717FD0021A015FFF713FD25E0B6485A
:102D9000844209D101210804FFF7FEFC00214FF411
:102DA0008030FFF7F9FC18E0B048844209D10121D6
:102DB0004804FFF7F1FC00214FF40030FFF7ECFC72
:102DC0000BE0AB48844208D101218804FFF7E4FC02
:102DD00000214FF48020FFF7DFFC10BD00220288A5
:102DE000944B98420ED0994B98420BD0B0F1804F43
:102DF00008D0914B984205D0904B984202D0904B0E
:102E0000984204D14FF68F731A404B881A438D4B6A
:102E1000984207D08C4B984204D04FF6FF431A409B
:102E2000CB881A4302808B8883850B880385814B6E
:102E300098420BD0854B984208D08B4B984205D0D6
:102E40008A4B984202D08A4B984201D10B7A038672
:102E500001238382704770B5002400220023058C73
:102E60004FF6FE7635400584028C8388048B4FF63E
:102E70008F752C40B51E2C400D882C43751E2A40A2
:102E80000D892A434D882A436A4DA8420BD06F4DC5
:102E9000A84208D0744DA84205D0744DA84202D073
:102EA000734DA84213D14FF6F7752A404D892A4336
:102EB0004FF6FB752A408D882A434FF6FF652B405D
:102EC0004FF6FF552B408D892B43CD892B438380B3
:102ED0000483CD888586028470BD70B500240022ED
:102EE0000023058C4FF6EF7635400584028C8388ED
:102EF000048B48F6FF752C404FF6FF452C400D889B
:102F00004FF6FF7606EA05252C434FF6DF752A407B
:102F10000D8906EA05152A434D8806EA05152A4358
:102F2000444DA84202D0494DA8421DD14FF67F75AD
:102F30002A404D894FF6FF7606EA05152A434FF6DB
:102F4000BF752A408D8806EA05152A434FF6FF35DE
:102F50002B404FF2FF752B408D8906EA85052B43E8
:102F6000CD8906EA85052B4383800483CD880587B8
:102F7000028470BD70B5002400220023058C4FF63A
:102F8000FF6635400584028C8388848B4FF68F75ED
:102F90002C404FF6FC752C400D882C434FF6FF5506
:102FA0002A400D894FF6FF7606EA05252A434D880B
:102FB00006EA05252A431F4DA84202D0234DA84208
:102FC0001DD14FF2FF752A404D894FF6FF7606EA74
:102FD00005252A434FF6FF352A408D8806EA052548
:102FE0002A434EF6FF752B404DF6FF752B408D8919
:102FF00006EA05152B43CD8906EA05152B43838088
:103000008483CD888587028470BD70B5002200233B
:103010000024058C4EF6FF7635400584038C8488A9
:10302000828B48F6FF752A404FF6FF452A400D88EF
:1030300020E00000002C0140000400400008004097
:10304000000C00400010004000140040003401401B
:10305000004C014000500140005401400018004065
:10306000001C00400020004000400140004401409E
:10307000004801404FF6FF7606EA05252A434DF643
:10308000FF752B400D8906EA05352B434D8806EA6E
:1030900005352B43FA4DA84202D0FA4DA84208D17B
:1030A0004BF6FF752C408D894FF6FF7606EA8515A5
:1030B0002C4384808283CD88A0F84050038470BD67
:1030C000828B4FF2FF331A408283828B4FF6FF735D
:1030D00003EA01231A4382837047F0B50C46154674
:1030E000002200210026078C4EF6FF7C07EA0C0721
:1030F0000784828B018C4FF6FF7707EA043640F68F
:10310000FF473A404FF6FF7707EA05273A434FF665
:10311000FF7707EA03373A43D94FB8420ED0D94F69
:10312000B8420BD0B0F1804F08D0D74FB84205D08D
:10313000D64FB84202D0D64FB84206D14DF6FF77EF
:10314000394046F48057394305E047F6FF57394088
:1031500044F48057394382830184F0BD828B4FF65B
:10316000F3731A408283828B0A4382837047F0B5DF
:103170000C461546002200210026078C4FF6FF6CF6
:1031800007EA0C070784828B018C4FF6FF7707EA6A
:1031900004264FF60C773A404FF6FF7707EA0317FD
:1031A0002F433A43B64FB8420ED0B64FB8420BD079
:1031B000B0F1804F08D0B44FB84205D0B34FB842F9
:1031C00002D0B34FB84206D14FF6FF57394046F40C
:1031D0008077394305E04FF2FF57394044F4807758
:1031E000394382830184F0BD028B4FF2FF331A40D2
:1031F0000283028B4FF6FF7303EA01231A43028313
:103200007047F0B50C461546002200210026078CB9
:103210004FF6EF7C07EA0C070784028B018C4FF610
:10322000FF7707EA041640F6FF473A404FF6FF776C
:1032300007EA03373A434FF6FF7707EA05273A4391
:103240008F4FB8420ED08F4FB8420BD0B0F1804FA5
:1032500008D08D4FB84205D08C4FB84202D08C4F69
:10326000B84206D14FF6DF77394046F010073943B0
:1032700005E04FF65F77394044F010073943028389
:103280000184F0BD028B4FF6F3731A400283028B68
:103290000A4302837047F0B50C4615460022002110
:1032A000068C4FF6FE773E400684028B018C4FF66B
:1032B0000C7632407E1C06EA03162E433243704ED3
:1032C000B0420ED06F4EB0420BD0B0F1804F08D05C
:1032D0006D4EB04205D06D4EB04202D06C4EB04241
:1032E00006D14FF6FD76314044F00106314305E04A
:1032F0004FF6F576314044F00106314302830184F4
:10330000F0BD70B505460C465D4885420ED05D485F
:1033100085420BD0B5F1804F08D05B48854205D07F
:103320005A48854202D05A48854200D100E000BF89
:10333000208850B92389A28861882846FFF7ABFF0F
:10334000E1882846FFF79EFF25E0208804280AD15F
:103350002389A28861882846FFF753FFE188284621
:10336000FFF742FF17E0208808280AD12389A288A6
:1033700061882846FFF7FBFEE1882846FFF7EEFE4E
:1033800009E02389A28861882846FFF7A6FEE18824
:103390002846FFF795FE70BD2DE9F04105460C4625
:1033A00000260127608808B9022600E00026A088D0
:1033B000012801D1022700E001272088A0B9238934
:1033C000A28861882846FFF766FFE1882846FFF754
:1033D00059FF23893A4631462846FFF712FFE18814
:1033E0002846FFF701FF13E02389A2886188284659
:1033F000FFF707FFE1882846FFF7F6FE23893A46E4
:1034000031462846FFF747FFE1882846FFF73AFF95
:10341000BDE8F0810A884B881A438B881A43CB8811
:103420001A430B891A434B891A438B891A43A0F814
:10343000442070474FF6FF71818000210180C180D8
:103440004180017270470021018041808180C180EC
:10345000018141818181C1817047002101804180CA
:10346000012181800021C1800181704700210180FC
:1034700041808180C180018141818181704700004C
:10348000002C0140003401400004004000080040CE
:10349000000C004021B1028842F00102028004E0E9
:1034A00002884FF6FE731A400280704731B1B0F8BF
:1034B000442042F40042A0F8442005E0B0F8442043
:1034C000C2F30E02A0F8442070471AB183890B435F
:1034D000838102E083898B438381704781827047B7
:1034E00041EA0203A0F8483070471AB183890B43C0
:1034F000838102E083898B438381704701894FF682
:10350000F8721140018170470A46002101894FF687
:103510008F73194011430181704730B504460D4641
:1035200029462046FFF7F0FF208940F00700208160
:1035300030BD2DE9F04104460D4616461F46602D6C
:1035400006D13B46012231462046FFF75AFE05E0F0
:103550003B46012231462046FFF79DFE2946204684
:10356000FFF7D2FF208940F007002081BDE8F081FD
:1035700030B50C4600210189C9B24FF6FF7505EA46
:103580000325154325432943018130BD2DE9F04131
:1035900005460E4617469846002443463A463146AD
:1035A0002846FFF7E5FF2C894FF6F870044044F0F9
:1035B00007044FF68F70044044F070042C81BDE87E
:1035C000F081F0B504460D4616461F463B4632468E
:1035D00029462046FFF7CCFF208940F48040208117
:1035E000F0BD0185828270470A46002101884FF6AE
:1035F0008F731940114301807047F0B50C46154692
:103600001E460021002200230189028B038C4FF605
:10361000F877394021434FF6FC473A4040F2011712
:103620003A434FF6DD773B404FF6FF7707EA061740
:103630002F433B43018102830384F0BD0A460021EE
:10364000018B4FF68F7319401143018370470A466F
:103650000021018B48F6FF7319404FF6FF7303EA10
:1036600002231943018370470A460021818B4FF6DC
:103670008F7319401143818370470A460021818B63
:1036800048F6FF7319404FF6FF7303EA022319430C
:103690008183704721B1028842F08002028004E0F9
:1036A00002884FF67F731A400280704721B18288EA
:1036B00042F00402828004E082884FF6FB731A40D5
:1036C0008280704721B1828842F00802828004E043
:1036D00082884FF6F7731A408280704721B1828842
:1036E00042F00102828004E082884FF6FE731A40A5
:1036F000828070470A460021018B4FF6F77319400C
:103700001143018370470A460021018B4FF2FF737A
:1037100019404FF6FF7303EA0223194301837047F0
:103720000A460021818B4FF6F773194011438183BC
:1037300070470A460021818B4FF2FF7319404FF604
:10374000FF7303EA02231943818370470A4600216D
:10375000018B4FF6FB7319401143018370470A46F2
:103760000021018B4FF6FF3319404FF6FF7303EA38
:1037700002231943018370470A460021818B4FF6CB
:10378000FB7319401143818370470A460021818BE6
:103790004FF6FF3319404FF6FF7303EA0223194334
:1037A000818370470A460021018B4FF67F731940D1
:1037B0001143018370470A460021018BC1F30E01BA
:1037C0004FF6FF7303EA02231943018370470A4649
:1037D0000021818B4FF67F7319401143818370471D
:1037E0000A460021818BC1F30E014FF6FF7303EAF5
:1037F00002231943818370470A460021018C4FF64A
:10380000FD7319401143018470470A460021018C61
:103810004FF6F77319401143018470470A4600219F
:10382000018C4FF6DF7319404FF6FF7303EA021362
:103830001943018470470A460021018C4FF67F73BB
:1038400019404FF6FF7303EA0213194301847047CE
:103850000A460021018C4FF6FF5319404FF6FF73C3
:1038600003EA02231943018470470A460021018CB0
:103870004FF2FF7319404FF6FF7303EA0223194317
:10388000018470470A460021018C4DF6FF731940F0
:103890004FF6FF7303EA023319430184704730B5D2
:1038A000002301248C40A3B2048C9C430484048C28
:1038B00002FA01F5ADB22C43048430BD30B50023CB
:1038C00004248C40A3B2048C9C430484048C02FA2C
:1038D00001F5ADB22C43048430BD70B50346002021
:1038E00000241846183001258D40ACB21D8CA5432C
:1038F0001D8409B1082909D100EB6100056825F094
:10390000700505600568154305600EE00D1FC5F3E1
:103910004E052844056825F4E045056005684FF626
:10392000FF7606EA02263543056070BD21B10288A4
:1039300042F00202028004E002884FF6FD731A4052
:103940000280704721B1028842F00402028004E044
:1039500002884FF6FB731A400280704721B18288BB
:1039600042F08002828004E082884FF67F731A4022
:103970008280704702884FF6F7731A4002800288EF
:103980000A430280704782884FF68F731A40828004
:1039900082880A438280704702894FF6F8731A4082
:1039A000028102890A430281704702894FF67F73C0
:1039B0001A40028102890A4302817047818470475C
:1039C000818570478186704701877047818770477E
:1039D000A0F84010704702884FF6FF431A4002805B
:1039E00002880A43028070470146888E704701466C
:1039F000088F70470146888F70470146B1F8400034
:103A000070470146888C70470146088D7047024612
:103A10000020138A0B400BB1012000E0002070470A
:103A2000CA430282704730B50246002000230024BA
:103A3000158A05EA0103958905EA010413B10CB161
:103A4000012000E0002030BDCA43028270472DE90A
:103A5000FE4F804681EA0300C00F0C46009021F023
:103A6000004123F00045B8EB0200A94105D24046D1
:103A7000214690461C460B46024623F00040104368
:103A800047D0270DC7F30A00C3F30A510290401A2A
:103A9000019040286BDAC3F3130040F4801B0098B8
:103AA000924620B10023D2EB030A63EB0B0B019883
:103AB0005946C0F14002504600F058F906460D46FE
:103AC00050465946019A00F070F910EB0800614128
:103AD000002487EA115284EAE7731A4340D0009A1F
:103AE00062B3019A012A4FEA075215DC001B61EB11
:103AF00002014FF0004202EA0752CDE90042001CE9
:103B000041F5801132462B4600F0A7F903B0BDE81D
:103B1000F08F40462146F9E7001B61EB0201001CD3
:103B200041F5801300185B412018A2F5001747EB00
:103B3000030140EAD570B6196D4111E06D084FEAF6
:103B4000360645EAC0754FEA0752001B61EB0201D9
:103B5000001C41F5801149084FEA3000001951411D
:103B600032462B4603B0BDE8F04F00F067B900982D
:103B7000012240000023D0EB020263EBE0730098C7
:103B800021464FEAE074B8EB000061EB0401E9E77D
:103B900083F000435BE781F0004158E72DE9FE4FD9
:103BA00081EA030404F0004421F0004100944FF046
:103BB000000B23F0004350EA01045ED052EA0304F4
:103BC0005BD0C3F30A54C1F30A552C44A4F2F33476
:103BD0000194A0FB0254C1F3130141F48011C3F31B
:103BE000130343F4801301FB024400FB034E840AD9
:103BF000970A44EA815447EA8357A4FB0768029571
:103C00008D0A05FB07854FEA932C04FB0C5427050E
:103C1000029D4FEA065847EA1637B5EB08056EEBEA
:103C2000070C870E920E47EA811742EA8312A7FB20
:103C30000201B6EB0B0164EB00042B0D43EA0C33DD
:103C40005E1844EB1C50DA465146E7FB0201C5F30F
:103C500013044FEA0B3343EA14534FEA0432019C36
:103C600043EA0603A4F10C040294009CCDE900B4DD
:103C700000F0F3F803B0BDE8F08F00200146F9E74B
:103C80000EB5C10F80EAE0700844CA07002140F277
:103C900033438DE80E000A460B4600F0DEF803B011
:103CA00000BD20F00040C10DC0F3160040F400003C
:103CB0007F2901DA00207047962903DCC1F19601C3
:103CC000C840704796398840704770B5C1F30A52B2
:103CD00001F000450024C1F3130140F2FF3341F429
:103CE00080119A4201DA002070BD40F233439A42BB
:103CF000A2F2334203DC524200F047F800E0904069
:103D00002C43F1D0404270BD01F0004330B421F0AB
:103D1000004150EA010206D00A0DA2F56072C1F31B
:103D20001301002A02DC30BC00207047440F44EA33
:103D3000C104C100E01830BC00EBC25000F047B82D
:103D400030B50B46014600202022012409E021FA6B
:103D500002F59D4205D303FA02F5491B04FA02F568
:103D60002844151EA2F10102F1DC30BD202A04DB3B
:103D7000203A00FA02F1002070479140C2F120037E
:103D800020FA03F3194390407047202A04DB203ABD
:103D900021FA02F00021704721FA02F3D040C2F16B
:103DA00020029140084319467047202A06DBCB17B2
:103DB000203A41FA02F043EAE07306E041FA02F3E6
:103DC000D040C2F1200291400843194670470029B3
:103DD000A8BF7047401C490008BF20F00100704791
:103DE00010B4B0FA80FC00FA0CF050EA010404BFF1
:103DF00010BC704749B1CCF1200421FA04F411FA47
:103E00000CF118BF012121430843A3EB0C01CB1D8A
:103E10004FEA00614FEA102042BF002010BC7047FB
:103E200000EBC35010440029A4BF10BC7047401CD5
:103E3000490008BF20F0010010BC704710B5141EE7
:103E400073F1000408DA401C41F1000192185B4153
:103E50001A4301D120F0010010BD2DE9F04D92462A
:103E60009B4611B1B1FA81F202E0B0FA80F2203241
:103E70009046FFF77BFF04460F4640EA0A0041EAFE
:103E80000B0153465A46084313D0114653EA01002A
:103E900019D0C8F140025046FFF777FF05460E469D
:103EA000504659464246FFF761FF084305D00120BE
:103EB00004E020463946BDE8F08D0020054346EA7F
:103EC000E0762C4337430A986305E40AA0EB080028
:103ED0000022FD0A44EA47540A3002D50020014678
:103EE000E9E7010510196941DDE908450019694153
:103EF000BDE8F04DA2E70000064C074D06E0E06883
:103F000040F0010394E8070098471034AC42F6D320
:103F1000FCF712F9B0400008D04000080FB4054B80
:103F200010B503A9044A029800F018F810BC5DF817
:103F300014FB0000011300086800002002E008C81C
:103F4000121F08C1002AFAD170477047002001E013
:103F500001C1121F002AFBD1704700002DE9FF4F5D
:103F600089B09B460446002506E025280BD05A461A
:103F70000B999047641C6D1C20780028F5D10DB07A
:103F80002846BDE8F08F0027B8460122474900E0E7
:103F9000074314F8013F203B02FA03F00842F7D12F
:103FA00020782E2819D114F8010F47F004072A2889
:103FB0000ED06FF02F022078A0F1300109290CD823
:103FC00008EB880102EB410100EB0108641CF2E7F9
:103FD0000A98641C50F8048B0A9020780028CED0F0
:103FE000642808D0692806D075281ED05A460B9937
:103FF00090476D1C58E00A994FF00A0901C90A91CF
:10400000002802DA40422D2102E0390504D52B2197
:104010008DF82010012103E0F90704D02021F7E7F3
:104020008A4608AE0DE00021FAE70A994FF00A0926
:1040300001C90A91F7E74946FFF782FE303106F8D9
:10404000011D0028F7D1ADEB060000F1200978072B
:1040500001D44FF00108C84502DDA8EB090000E0DB
:1040600000208046002706E008A85A46C05D0B994C
:1040700090476D1C7F1C5745F6DB04E030205A4604
:104080000B9990476D1CB8F10001A8F10108F5DC0F
:1040900005E016F8010B5A460B9990476D1CB9F1D3
:1040A0000001A9F10109F4DC641C65E7092801009D
:1040B000D0400008000000208C0000003C3F0008B9
:1040C0005C4100088C0000206C0600004C3F00089A
:1040D00000A24A04000000000000000001020304E6
:1040E00006070809000000000000000000000000B2
:1040F00000000000000000000000000000000000C0
:1041000000000000000000000000000000000000AF
:10411000000000000000000000000000000000009F
:10412000000000000000000000000000000000008F
:104130000038014000000000000000000000000006
:10414000000000000000000000010203040102035F
:0C4150000406070809020406080000002D
:0400000508000131BD
:00000001FF
